:020000040800F2
:1000000000200020550C00082901000833010008D9
:1000100000000000000000000000000000000000E0
:100020000000000000000000000000003B0100088C
:100030000000000000000000450100084F0100081A
:10004000A50C0008A50C0008A50C0008A50C0008CC
:10005000A50C0008A50C0008A50C0008A50C0008BC
:10006000A50C0008A50C0008A50C0008A50C0008AC
:10007000A50C0008A50C0008A50C0008A50C00089C
:10008000A50C0008A50C0008A50C0008A50C00088C
:10009000A50C0008A50C0008A50C0008A50C00087C
:1000A000A50C0008A50C0008A50C0008A50C00086C
:1000B000A50C0008A50C0008A50C0008A50C00085C
:1000C00010B5064C2378002B07D1054B002B02D02E
:1000D000044800E000BF0123237010BD040000208D
:1000E00000000000F00D0008044B10B5002B03D0F9
:1000F0000349044800E000BF10BDC04600000000F6
:1001000008000020F00D000880B500AF00F054F9A1
:1001100000F01EF9034A10231821282000F08CFA61
:10012000C046FDE7080E000880B500AFC046BD46DA
:1001300080BD80B500AFC046FDE780B500AFC046CA
:10014000BD4680BD80B500AFC046BD4680BD80B510
:1001500000AFC046BD4680BD80B582B000AF002371
:100160007B6002E07B6801337B607B68132BF9DDE9
:10017000C046C046BD4602B080BD000080B500AF9D
:100180000E4B8021180000F027FD0C4B4021180079
:1001900000F022FDFFF7E0FF084B8021180000F07F
:1001A0002AFDFFF7D9FF054B4021180000F023FD81
:1001B000FFF7D2FFC046BD4680BDC046000C0140DF
:1001C00080B500AF0A4B8021180000F014FD084BE9
:1001D0004021180000F000FDFFF7BEFF044B802116
:1001E000180000F0F9FCFFF7B7FFC046BD4680BD20
:1001F000000C014080B584B000AF0200FB1D1A70F6
:100200000F23FB1800221A702AE0FB1D1B785BB23B
:10021000002B05DA214B8021180000F0DDFC04E002
:100220001E4B8021180000F0E6FCFFF795FF1B4BEA
:100230004021180000F0D0FCFFF78EFF174B402143
:10024000180000F0D8FCFFF787FFFA1DFB1D1B7894
:10025000DB1813700F217B181A787B1801321A7083
:100260000F23FB181B78072BCFD90C4B80211800CC
:1002700000F0B2FCFFF770FF084B4021180000F0BF
:10028000ABFCFFF769FF054B4021180000F0B3FC01
:10029000FFF762FFC046BD4604B080BD000C0140C0
:1002A00080B582B000AF0200FB1D1A70FFF766FF39
:1002B0007820FFF79FFF0020FFF79CFFFB1D1B78B6
:1002C0001800FFF797FFFFF77BFFC046BD4602B05F
:1002D00080BD80B582B000AF0200FB1D1A70FFF731
:1002E0004DFF7820FFF786FF4020FFF783FFFB1DBF
:1002F0001B781800FFF77EFFFFF762FFC046BD4680
:1003000002B080BD80B582B000AF0200FB1D1A7044
:10031000BB1D0A1C1A70BB1D1B78503BDBB21800BA
:10032000FFF7BEFFFB1D1B781B09DBB21022134336
:10033000DBB21800FFF7B4FFFB1D1B780F22134040
:10034000DBB21800FFF7ACFFC046BD4602B080BD6F
:1003500080B582B000AFFB1D00221A7022E0FB1DA9
:100360001B78503BDBB21800FFF79AFF0020FFF725
:1003700097FF1020FFF794FFBB1D00221A7007E0C3
:100380000020FFF7A6FFBB1D1A78BB1D01321A70B3
:10039000BB1D1B785BB2002BF2DAFB1D1A78FB1D2C
:1003A00001321A70FB1D1B78072BD8D9C046C046F6
:1003B000BD4602B080BD000090B589B000AF0121FC
:1003C000082000F027FC08243B19180000F0E8FB87
:1003D00021007B18C0221A607B1811225A607B18FA
:1003E0000022DA607B1801229A607B18394A1900D2
:1003F000100000F045FA374B4021180000F0ECFBEC
:10040000344B8021180000F0E7FB00237B6002E002
:100410007B6801337B607B682F4A9342F8DDAE2016
:10042000FFF73EFF2020FFF73BFF1020FFF738FFCC
:10043000B020FFF735FFC820FFF732FF0020FFF79D
:100440002FFF1020FFF72CFF4020FFF729FF81200E
:10045000FFF726FFFF20FFF723FFA120FFF720FF74
:10046000A620FFF71DFFA820FFF71AFF3F20FFF788
:1004700017FFA420FFF714FFD320FFF711FF002080
:10048000FFF70EFFD520FFF70BFFF020FFF708FF67
:10049000D920FFF705FF2220FFF702FFDA20FFF740
:1004A000FFFE1220FFF7FCFEDB20FFF7F9FE202005
:1004B000FFF7F6FE8D20FFF7F3FE1420FFF7F0FEA6
:1004C000AF20FFF7EDFEFFF743FFC046BD4609B082
:1004D00090BDC046000C01404FC30000B0B584B0D1
:1004E00000AF05000C0010001900FB1D2A1C1A703B
:1004F000BB1D221C1A707B1D021C1A703B1D0A1C9E
:100500001A700E23FB187A1D1278203A1A700F23E6
:10051000FB1800221A70FB1D1B785BB2002B07DA58
:10052000FB1D00221A70BB1DBA1D127802321A7010
:100530003B1D1B78102B4ED1BB1D1B78DB08DAB29C
:10054000FB1D1B7811001800FFF7DCFE0F23FB18C2
:1005500000221A7011E00E23FB181B781A010F24D9
:100560003B191B78D318324AD35C1800FFF7B1FE51
:100570003B191A783B1901321A700F243B191B786A
:10058000072BE8D9BB1D1B78DB08DBB20133DAB2DD
:10059000FB1D1B7811001800FFF7B4FE3B19002269
:1005A0001A7012E00E23FB181B781A010F243B1956
:1005B0001B78D31808331E4AD35C1800FFF789FE56
:1005C0003B191A783B1901321A700F23FB181B785C
:1005D000072BE7D928E0BB1D1B78DB08DAB2FB1D2F
:1005E0001B7811001800FFF78DFE0F23FB18002267
:1005F0001A7014E00E23FB181A780F243B1919788F
:100600000C4813005B009B185B00C3185B5C180070
:10061000FFF75FFE3B191A783B1901321A700F235E
:10062000FB181B78052BE5D9C046BD4604B0B0BD0C
:1006300034100008100E000890B585B000AF04001B
:1006400008003A601900FB1D221C1A70BB1D021C19
:100650001A707B1D0A1C1A700F23FB1800221A70D7
:100660002FE00F23FB181B783A68D3181A787B1DEC
:100670001C78BB1D1978FB1D18782300FFF72EFF8F
:100680007B1D1B78102B05D1FB1DFA1D127808323B
:100690001A7004E0FB1DFA1D127806321A70FB1D59
:1006A0001B78782B07D9FB1D00221A70BB1DBA1DC1
:1006B000127802321A700F217B181A787B180132D7
:1006C0001A700F23FB181B783A68D3181B78002B7D
:1006D000C7D1C046C046BD4605B090BD80B500AF8D
:1006E000184B1A68174B01210A431A60154B5A68B8
:1006F000144B15490A405A60124B1A68114B1349A2
:100700000A401A600F4B1A680E4B11490A401A60D2
:100710000C4B5A680B4B0F490A405A60094BE022B8
:100720009201DA62074BBF2212049A600A4B1A68E0
:10073000094B10210A431A6000F010F8C046BD466C
:1007400080BDC046001002400000FF21FFFFF6FE02
:10075000FFFFBFFFFFFF00FE0020024080B584B016
:1007600000AF0023BB600023FB60FB1D00221A705A
:100770003E4B1A683D4B01210A431A603B4B1B68F4
:1007800002221A40FB1D511E8A411A70FB68013378
:10079000FB60FB1D1B7801225340DBB2002B04D011
:1007A000FA68A023DB009A42E8D1304B1B68022292
:1007B0001A40FB1D511E8A411A70FB1D1B78012235
:1007C0005340DBB2002B01D0C046FDE7284B1A682E
:1007D000274B03218A431A60254B1A68244B0221B8
:1007E0000A431A60214A214B52685A601F4B5A68CB
:1007F0001E4B20490A405A601C4B5A681B4B1E492D
:100800000A405A60194B5B68BB60BB68C022920209
:100810001343BB60154BBA685A60144B1A68134BEC
:10082000802149040A431A60C046104B1A6880238D
:100830009B041340F9D00D4B5A680C4B07218A4397
:100840005A600A4B5A68094B02210A435A60C04653
:10085000064B5B68094A1A408023DB019A42F7D1B4
:10086000C046C046BD4604B080BDC0460010024030
:1008700000200240FFFF3FFFFFFFC0FE08C0000056
:1008800080B586B000AF7860396000237B610023BB
:10089000FB6000233B616DE13B681B6801217A69C5
:1008A00091400A001340FB60FB68002B00D15EE121
:1008B0003B685B68022B03D03B685B68122B3CD122
:1008C0007B69082213401CD07B685B6A3B617B69B3
:1008D000072213409B000F229A401300DA433B6922
:1008E00013403B613B685A697B6907210B409B00C1
:1008F0009A4013003A6913433B617B683A695A6234
:100900001BE07B681B6A3B617B69072213409B00ED
:100910000F229A401300DA433B6913403B613B6866
:100920005A697B6907210B409B009A4013003A6982
:1009300013433B617B683A691A623B685B68012B31
:100940000BD03B685B68112B07D03B685B68022BC0
:1009500003D03B685B68122B19D17B685B683B61F5
:1009600001227B699A401300DB431A003B69134064
:100970003B613B685B681B0901221A407B699A4016
:1009800013003A6913433B617B683A695A607B689C
:100990001B683B617B695B0003229A401300DA43CA
:1009A0003B6913403B613B685B6803221A407B69EB
:1009B0005B009A4013003A6913433B617B683A69D4
:1009C0001A607B68DB683B617B695B0003229A40AD
:1009D0001300DA433B6913403B613B689A687B69CB
:1009E0005B009A4013003A6913433B617B683A69A4
:1009F000DA607B689B683B6101227B699A40130047
:100A0000DB431A003B6913403B613B68DA687B6952
:100A10009A4013003A6913433B617B683A699A60D4
:100A20007B68DB6A3B6101227B699A401300DB43F0
:100A30001A003B6913403B613B681A697B699A4025
:100A400013003A6913433B617B683A69DA623B6899
:100A50005A6880235B05134000D188E04B4A7B69CC
:100A60009B0802339B009B583B617B690322134028
:100A70009B000F229A401300DA433B6913403B610D
:100A80007B68434A93420DD07B68424A934207D029
:100A90007B68414A934201D1022304E0052302E02E
:100AA000012300E000237A6903210A409200934069
:100AB0001A003B6913433B6134497B699B0802334D
:100AC0009B003A695A50354B1B683B61FB68DA431F
:100AD0003B6913403B613B685A6880235B021340CB
:100AE00003D03A69FB6813433B612C4B3A691A60A7
:100AF0002A4B5B683B61FB68DA433B6913403B610F
:100B00003B685A6880239B02134003D03A69FB6814
:100B100013433B61214B3A695A60204B9B683B6110
:100B2000FB68DA433B6913403B613B685A688023AA
:100B30005B03134003D03A69FB6813433B61174BD7
:100B40003A699A60154BDB683B61FB68DA433B69A5
:100B500013403B613B685A6880239B03134003D0DA
:100B60003A69FB6813433B610C4B3A69DA607B6975
:100B700001337B613B681A687B69DA40131E00D041
:100B80008AE6C046C046BD4606B080BD00000140B2
:100B900000080140000C0140001001400004014029
:100BA00080B582B000AF78607B680A4A1A607B68C3
:100BB0000F225A617B6800225A607B6800229A608B
:100BC0007B680122DA607B6800221A61C046BD465C
:100BD00002B080BDFFFF000080B582B000AF78603A
:100BE0000A00BB1C1A80BB1C1A887B689A61C0462D
:100BF000BD4602B080BD80B582B000AF78600A000B
:100C0000BB1C1A80BB1C1A887B689A62C046BD4612
:100C100002B080BD80B582B000AF78600A00FB1CD6
:100C20001A70FB1C1B78002B06D0094B9969084BE6
:100C30007A680A439A6106E0054B9A697B68D94352
:100C4000034B0A409A61C046BD4602B080BDC04613
:100C5000001002400D4885460D480E490E4A0023FB
:100C600002E0D458C4500433C4188C42F9D30B4A60
:100C70000B4C002301E013600432A242FBD3FFF7C8
:100C80002DFD00F019F8FFF73FFAFEE700200020E5
:100C90000000002004000020F015000804000020DF
:100CA000B8010020FEE7000010B50100002300227B
:100CB000002000F03DF810BD70B50D4B0D4D5E1BD2
:100CC000B610AB4205D0002408CD01349847A642A7
:100CD000FAD800F08DF8084B084D5E1BB610AB42F9
:100CE00005D0002408CD01349847A642FAD870BD3B
:100CF000E4150008E4150008EC150008E4150008E8
:100D000070B5074C074D641BA41005D0013CA3002F
:100D1000EB589847002CF9D100F070F870BDC04630
:100D2000F0150008EC1500087047C0467047C04633
:100D3000F0B5D6464F4646469846244BC0B5060009
:100D400018689A460F009146FFF7EEFF204B1D688A
:100D5000002D32D053466C6818681F2C30DC002EF2
:100D60000CD1631C0234A4006B606751FFF7DEFFF7
:100D70000020E0BCBA46B146A846F0BD49468822EC
:100D8000A300EB189950C42149008C46AC4461463D
:100D9000873AA24009689146114362461160842156
:100DA000424649005A50022EDBD129004A468D3175
:100DB000FF310B6813430B60D3E7064D1D60C9E795
:100DC000FFF7B4FF01204042D3E7C04600000020F7
:100DD000B401002024000020034B10B5002B02D0EA
:100DE0000248FFF761FF10BD00000000010D000880
:100DF000F8B5C046F8BC08BC9E467047F8B5C0467A
:080E0000F8BC08BC9E467047D7
:100E080052656164792100000000000000000000C4
:100E1800002F000000000700070000147F147F1453
:100E280000242A7F2A1200626408132300364955D9
:100E3800225000000503000000001C2241000000B1
:100E480041221C000014083E08140008083E080847
:100E5800000000A0600000080808080800006060A2
:100E68000000002010080402003E5149453E0000E1
:100E7800427F4000004261514946002141454B31C3
:100E8800001814127F10002745454539003C4A498F
:100E98004930000171090503003649494936000601
:100EA8004949291E00003636000000005636000069
:100EB80000081422410000141414141400004122E4
:100EC800140800020151090600324979413E007EAA
:100ED8001111117E007F49494936003E41414122A6
:100EE800007F4141221C007F49494941007F09098F
:100EF8000901003E4149497A007F0808087F00003F
:100F0800417F4100002040413F01007F08142241F9
:100F1800007F40404040007F020C027F007F0408B1
:100F2800107F003E4141413E007F09090906003E0D
:100F38004151215E007F0919294600464949493136
:100F48000001017F0101003F4040403F001F204059
:100F5800201F003F4038403F006314081463000717
:100F68000870080700615149454300007F4141006E
:100F780000552A552A55000041417F00000402010E
:100F880002040040404040400000010204000020EC
:100F980054545478007F484444380038444444202A
:100FA80000384444487F00385454541800087E09D7
:100FB8000102000C5252523E007F080404780000DF
:100FC800447D4000002040443D00007F102844003C
:100FD8000000417F4000007C04180478007C08046D
:100FE8000478003844444438007C14141408000879
:100FF8001414187C007C0804040800485454542035
:1010080000043F444020003C4040207C001C20401D
:10101800201C003C4030403C004428102844000C70
:101028005050503C004464544C4400000000000000
:10103800000000000000000000000000000000F8B0
:1010480000000000000000333000000000100C0613
:10105800100C0600000000000000000040C07840AE
:10106800C0784000043F04043F040400007088FC7A
:1010780008300000001820FF211E0000F008F000D2
:10108800E018000000211C031E211E0000F0088843
:10109800700000001E2123241927211010160E00AD
:1010A800000000000000000000000000000000E058
:1010B800180402000000000718204000000204186D
:1010C800E00000000040201807000000404080F0C9
:1010D800804040000202010F01020200000000F0FF
:1010E800000000000101011F0101010000000000D3
:1010F8000000000080B07000000000000000000048
:1011080000000000000101010101010000000000D1
:101118000000000000303000000000000000000067
:1011280080601804601806010000000000E0100844
:101138000810E000000F102020100F00001010F819
:10114800000000000020203F202000000070080858
:1011580008887000003028242221300000300888D8
:10116800884830000018202020110E000000C02000
:1011780010F8000000070424243F240000F8088821
:10118800880808000019212020110E0000E01088AE
:1011980088180000000F112020110E000018080800
:1011A800C83808000000003F0000000000708808F0
:1011B80008887000001C222121221C0000E0100871
:1011C8000810E0000000312222110F00000000C0CA
:1011D800C000000000000030300000000000008067
:1011E8000000000000008060000000000000804057
:1011F8002010080000010204081020004040404070
:1012080040404000040404040404040000081020C2
:101218004080000000201008040201000070480807
:101228000808F0000000003036010000C030C8286F
:10123800E810E0000718272423140B000000C0382A
:10124800E0000000203C23020227382008F88888A4
:1012580088700000203F202020110E00C0300808B0
:1012680008083800071820202010080008F8080887
:101278000810E000203F202020100F0008F8888880
:10128800E8081000203F20202320180008F888884C
:10129800E8081000203F200003000000C0300808C4
:1012A8000838000007182020221E020008F808004D
:1012B80008F80800203F2001203F2000000808F817
:1012C800080800000020203F202000000000080837
:1012D800F8080800C08080807F00000008F888C0F7
:1012E80028180800203F20012638200008F80800A8
:1012F80000000000203F20202020300008F830C0E7
:1013080030F80800203F2000203F200008F8106037
:1013180080F80800203F2000013F2000E010080866
:101328000810E0000F10202020100F0008F808080F
:101338000808F000203F210101010000E010080822
:101348000810E0000F18242438504F0008F8888847
:1013580088887000203F2000030C30200070880827
:10136800080838000038202121221C00180808F835
:10137800080818000000203F2000000008F80800B6
:101388000008F808001F202020201F000878880087
:1013980000C83808000007380E010000F80800F8F7
:1013A8000008F800033C0700073C030008186880A1
:1013B8006818080020302C032C3020000838C8009A
:1013C800C83808000000203F200000001008080866
:1013D800C83808002028242221300000000000FE20
:1013E80002020200000000FF404040000418608034
:1013F800000000000000000106186000020202FE62
:1014080000000000404040FF000000000008040207
:1014180004080000000000000000000000000000B8
:1014280000000000808080808080808002040000AE
:1014380000000000000000000000000000008080A4
:10144800808000000019242222223F2008F8008012
:1014580080000000003F112020110E0000000080D5
:1014680080800000000E1120202011000000008064
:101478008088F800000E112020103F200000808096
:1014880080800000001F222222221300008080F0AA
:10149800888818000020203F20200000000080805D
:1014A80080808000006B94949493600008F800801A
:1014B80080800000203F210000203F200080989875
:1014C800000000000020203F2020000000000080D5
:1014D8009898000000C08080807F000008F8000015
:1014E80080808000203F24022D302000000808F86A
:1014F800000000000020203F202000008080808025
:1015080080808000203F20003F20003F80800080B6
:1015180080800000203F210000203F2000008080C4
:1015280080800000001F202020201F008080008075
:101538008000000080FFA12020110E000000008024
:1015480080808080000E112020A0FF808080800095
:1015580080808000203F2101200001000000808061
:10156800808080000033242424241900008080E037
:10157800808000000000001F202000008080000004
:1015880000808000001F202020103F2080808000E5
:101598008080800000010E300806010080800080F5
:1015A80000808000000F300C300F000000808000A9
:1015B800008080000020312E0E31200080808000C5
:1015C80000808080008186986018060100808080F5
:0C15D800008080000021302C2221300017
:0815E400D90D0008E900000820
:0415EC00C100000832
:0415F00020000020B7
:0400000508000C558E
:00000001FF
